:100000000C942E000C9440000C9440000C94400082
:100010000C9440000C9440000C9440000C94400060
:100020000C9440000C9440000C9463000C9440002D
:100030000C9440000C9440000C9440000C94400040
:100040000C9440000C9440000C9440000C94400030
:100050000C9440000C9440000C94400011241FBEEE
:10006000CFEFD4E0DEBFCDBF11E0A0E0B1E001C032
:100070001D92A430B107E1F70E9442000C94950054
:100080000C94000078948FEF8AB981E08BB980E8F6
:100090008093610083E08093610082E080936E0032
:1000A00086E287BD8CE084BDFFCFE1E6F0E080E82A
:1000B000808383E0808382E080936E0086E287BD48
:1000C0008CE084BD08951F920F920FB60F921124F9
:1000D0008F939F93809100019091010101969093DD
:1000E00001018093000184369105C1F480910201E1
:1000F00090910301892B49F481E090E090930301F2
:100100008093020181E08BB905C010920301109227
:1001100002011BB810920101109200019F918F9172
:0E0120000F900FBE0F901F901895F894FFCF10
:00000001FF
