:100000000C942E000C9440000C94C7000C94A30098
:100010000C9440000C9440000C9440000C94400060
:100020000C9440000C9440000C9440000C94400050
:100030000C9440000C9440000C9440000C94400040
:100040000C9440000C9440000C9440000C94400030
:100050000C9440000C9440000C94400011241FBEEE
:10006000CFEFD4E0DEBFCDBF11E0A0E0B1E001C032
:100070001D92A230B107E1F70E9442000C94F600F5
:100080000C94000084B1886D84B985B1806D85B908
:100090001DB88EB18C608EB98CE080936B0080EDC2
:1000A00080936C0080EC8CBB8DBB8FEF8AB914B849
:1000B00085B98BB95FEE47EF3BEF2DEF9EEFF894DC
:1000C00080910101882321F08091000110920101AB
:1000D0007894843011F49BB9F2CF823011F42BB9AB
:1000E000EECF833011F43BB9EACF853011F44BB930
:1000F000E6CF813021F75BB9E2CF83B19CB1909517
:100100009C708095807D982B96FF02C094E00FC074
:1001100097FF02C095E00BC092FF02C093E007C0BA
:1001200093FF02C092E003C094FF0AC091E0809167
:100130000101882329F49093000181E0809301015B
:1001400080EC8CBB08951F920F920FB60F92112472
:100150002F933F934F935F936F937F938F939F93CF
:10016000AF93BF93EF93FF930E947D00FF91EF91B8
:10017000BF91AF919F918F917F916F915F914F91BF
:100180003F912F910F900FBE0F901F9018951F92C7
:100190000F920FB60F9211242F933F934F935F93BB
:1001A0006F937F938F939F93AF93BF93EF93FF933F
:1001B0000E947D00FF91EF91BF91AF919F918F9130
:1001C0007F916F915F914F913F912F910F900FBE53
:1001D0000F901F901895F89480910101882321F0C9
:1001E000809100011092010178940895F894FFCF56
:00000001FF
