:100000000C94B6000C94D3000C94D3000C94D30041
:100010000C94D3000C94D3000C94D3000C94D30014
:100020000C94D3000C94D3000C94D3000C94D30004
:100030000C94D3000C94D3000C94D3000C94D300F4
:100040000C94D3000C94D3000C94D3000C94D300E4
:100050000C94D3000C94D3000C94D5020D0D596F61
:1000600075206172652074616C6B696E6720746FB6
:1000700020746865200000277363726F6C6C657272
:10008000272064656D6F2E0D0D00000D596F7520D2
:1000900073656E743A2027000027202D20492064C4
:1000A0006F6E277420756E6465727374616E642E52
:1000B0000D00005363726F6C6C65722064656D6F28
:1000C0000D00004C6F6164696E6720746865206D77
:1000D00065737361676520746F207363726F6C6CF6
:1000E0000D0000496E76616C6964206D6573736103
:1000F000676520696E20454550524F4D0D000051F7
:100100000A802A0000000A510A00005955180111FE
:100110001E111B500B411B411F1101511F511B0090
:1001200000000000000000000000000000510F91DE
:100130003941149131411E410E411D500F80201054
:100140001548864014780570855115510E5195510A
:100150008E219081205015484450C528C028200980
:1001600050000000000000000000000011241FBE2D
:10017000CFEFD4E0DEBFCDBF11E0A0E0B1E0E4EB13
:10018000F8E002C005900D92A432B107D9F711E052
:10019000A4E2B1E001C01D92AF3BB107E1F70E94BC
:1001A000AB010C9458040C9400008091C000881F8F
:1001B0008827881F08958091C60008958093C600FF
:1001C0000FB607FE0EC020E030E002C02F5F3F4FA9
:1001D0008091C00086FD09C087E220313807B1F761
:1001E00004C08091C00086FFFCCF8091C000806475
:1001F0008093C00008950F931F93CF93DF938C01DA
:10020000C0E0D0E0F801EC0FFD1F8081882331F0C1
:1002100021960E94DE00C034D105A1F7DF91CF9175
:100220001F910F9108950F931F93CF93DF938C012C
:10023000C0E0D0E002C00E94DE00F801EC0FFD1F1C
:100240008491882321F02196CD33D105A1F7DF9148
:10025000CF911F910F910895E1E6F0E080E880834F
:1002600092E090831092C5008CE08093C40090933C
:10027000C00088E18093C10086E08093C20078943A
:1002800080E580936C0080E88CBB8DBB089580E88E
:100290008093610083E0809361001092700088E099
:1002A0008093B60088EC8093B30010926E0081E0DA
:1002B000809381008093B0002091B6008091B600B9
:1002C00090E08470907030E021703070822B932B1E
:1002D000892B91F780E090E020E335E7F901319731
:1002E000F1F701968A309105C9F74FEF51E0F89484
:1002F00046BB47BB10928500109284001092B2005A
:1003000087B38823E9F310928100789486B3882319
:10031000B9F49091840080918500382F20E0B901D4
:10032000690F711DCB0178E18B36970724F080911E
:100330006600815008C0885E974114F081E006C0D5
:10034000809166008F5F8093660080E0509381000B
:10035000882369F20895CF92DF92EF92FF920F9374
:100360001F93DF93CF93CDB7DEB7C054D0400FB605
:10037000F894DEBF0FBECDBF0E946A0290E07E01FE
:100380000894E11CF11C6E010894C108D108809109
:10039000C00087FFFCCF8091C600F701E90FF11D77
:1003A00080839F5F092F10E0FE01E00FF11F808125
:1003B0008A3031F0913458F380E091E00E94FB00E4
:1003C0000C0D1D1DF8011082C7010E943702198211
:1003D00090E0DDCF01C00000F999FDCF80E091E011
:1003E00092BD81BDF89A60B5862F8150803460F44B
:1003F00084E291E044E051E00E94470484E291E00D
:1004000061E00E94B203089583EE90E061E00E94F3
:1004100083030895CF93DF93EC0183EC90E00E9477
:10042000130160916401FE01E60FF11D80816F5F91
:100430008823C9F760936401F89401C00000F9991A
:10044000FDCF80E091E092BD81BD60BDFA9AF99A3E
:1004500001C00000F999FDCF7894CE0141E051E050
:100460000E942D040E94EA01DF91CF910895CF935D
:10047000DF93EC0188818D34A9F08436E9F4898119
:10048000853629F58A818D3611F58B818F36F9F401
:100490008C818F33E1F48CE590E00E94130187E7B3
:1004A00090E013C08981833591F48A81873479F48F
:1004B000CE010E940A020BC08BE890E00E9413015B
:1004C00088810E94DE0089E990E00E941301DF919B
:1004D000CF9108950E9447010E942C010E94BF0203
:1004E0008CE590E00E94130187E790E00E941301E1
:1004F0000E94EA010895982F6630B0F58A5281353E
:1005000018F040E050E00CC0913608F09F7D9A5200
:10051000E92FF0E0EE0FFF1FE150FF4F459154919E
:10052000862F90E0DC01A170B07060FD02C090EFFA
:1005300001C09FE06695E62FF0E0E659FE4F30E0FF
:10054000242F2F7084E0569547958A95E1F71097F0
:1005500011F02295207F80818923282B20833F5F03
:10056000343011F03596ECCF089581118FEFEAE623
:10057000F1E0819391E0EE37F907D9F7089580E033
:100580000E94B5028FE08093E70087EB8093E5003F
:1005900087E08093E600E4EEF0E080EC80838081E9
:1005A000886080831092650108951F920F920FB6A4
:1005B0000F921124EF92FF920F931F932F933F936B
:1005C0004F935F936F937F938F939F93AF93BF935B
:1005D000CF93DF93EF93FF9300912101015000939C
:1005E000210180916901882371F0002371F48091C9
:1005F0006601882321F481E08093650106C0815063
:100600008093660102C01092BE0180916501813025
:1006100009F053C0E0906701FF2410E0C0E0D0E093
:100620006C2F8091BE01992787FD90958C0F9D1F9F
:1006300097FD16C01123A1F48091BE01992787FD73
:100640009095FE01E258FE4FE80FF91F8081F82EC9
:10065000FF1CFF24FF1C8F7721F41C2F1F5F01C09C
:1006600080E2FF2021F094E09E1508F480E20E94D1
:100670007B022196C630D10599F6ACEEB0E0FD01C3
:10068000E258FF4F80818D9381E0A030B807B9F721
:1006900080916801882321F081E08093F40002C0FA
:1006A0001092F400113011F48AEF03C08091BE0162
:1006B0008F5F8093BE0110926501002319F483E0DF
:1006C00080932101809167018A3019F410926701AB
:1006D00003C08F5F80936701FF91EF91DF91CF910E
:1006E000BF91AF919F918F917F916F915F914F914A
:1006F0003F912F911F910F91FF90EF900F900FBEA0
:100700000F901F901895382F292F8091650188230D
:10071000E1F7AEE7B1E0832F922FFC0101C08D938A
:100720009E2F931B8491882329F0319621E0AE3BC4
:10073000B207A9F7E92FF0E0E258FE4F1082973098
:1007400048F081E0809369011092BE0183E08093BC
:10075000660104C0109269011092BE0181E080938D
:1007600065010895482F292F809165018823E1F7BD
:10077000AEE7B1E0842F922F9C01F90101C08D9367
:100780009E2F941B8081882329F0319621E0AE3B77
:10079000B207A9F7E92FF0E0E258FE4F1082973038
:1007A00048F081E0809369011092BE0183E080935C
:1007B000660104C0109269011092BE0181E080932D
:1007C00065010895803428F4E82FF0E0E258FE4FE8
:1007D00060830895EEE7F1E0119281E0EE3BF807C7
:1007E000D9F70895809368010895982F8091650145
:1007F0008823E1F7609369011092BE01909365012F
:100800000895109267010895982FEEE7F1E0119294
:1008100081E0EE3BF807D9F781E480937E0182E422
:1008200080937F0183E48093800184E4809381013D
:1008300085E48093820186E4809383018091650141
:100840008823E1F7109269011092BE0181E0809344
:1008500065019F709093E7000895FC0180E014C04B
:100860009081F89401C00000F999FDCF52BD41BDBF
:1008700090BDFA9AF99A01C00000F999FDCF7894D9
:100880004F5F5F4F8F5F3196861750F30895FC01DD
:1008900090E00BC00000F999FDCF52BD41BDF89A20
:1008A00080B581934F5F5F4F9F5F9617A0F30895C8
:0408B000F894FFCFEA
:1008B4004572726F72202D20726563656976656476
:1008C400203E2036342063686172616374657273FC
:0408D40000030F000E
:00000001FF
