:100000000C94B8000C94D5000C94D5000C94D50039
:100010000C94D5000C9433020C94D5000C94D500AC
:100020000C94D5000C94D5000C94D5000C94D500FC
:100030000C94D5000C94D5000C94D5000C94D500EC
:100040000C94D5000C94D5000C94D5000C94D500DC
:100050000C94D5000C94D5000C94D5000D596F75F7
:10006000206172652074616C6B696E6720746F200B
:100070007468652000275265616C2054696D6520A5
:10008000436C6F636B272064656D6F2E0D000D59F7
:100090006F752073656E743A20270027202D204944
:1000A00020646F6E277420756E6465727374616E60
:1000B000642E0D00456E74657220002767657427F5
:1000C00020746F20676574207468652074696D659D
:1000D00020616E6420646174652E0D002773656372
:1000E00058582720746F20736574207468652073D6
:1000F00065636F6E6400276D696E58582720746FB2
:100100002073657420746865206D696E7574650070
:1001100027686F757258582720746F207365742094
:1001200074686520686F75720020746F2058582EAF
:100130000D000D4552524F52202D206E756D626597
:1001400072206D757374206265206C657373207402
:1001500068616E20002036302E0D002031322E0DC9
:10016000005468652074696D652069733A20000049
:1001700011241FBECFEFD4E0DEBFCDBF11E0A0E061
:10018000B1E0EEE4F8E002C005900D92AA32B107AA
:10019000D9F711E0AAE2B1E001C01D92AD32B1077A
:1001A000E1F70E94AD010C9425040C9400008091AD
:1001B000C000881F8827881F08958091C600089571
:1001C0008093C6000FB607FE0EC020E030E002C0EC
:1001D0002F5F3F4F8091C00086FD09C087E220312C
:1001E0003807B1F704C08091C00086FFFCCF809132
:1001F000C00080648093C00008950F931F93CF9335
:10020000DF938C01C0E0D0E0F801EC0FFD1F80818E
:10021000882331F021960E94E000C034D105A1F777
:10022000DF91CF911F910F9108950F931F93CF935B
:10023000DF938C01C0E0D0E002C00E94E000F80132
:10024000EC0FFD1F8491882321F02196CD33D10539
:10025000A1F7DF91CF911F910F910895E1E6F0E0B2
:1002600080E8808392E090831092C5008CE08093B8
:10027000C4009093C00088E18093C10086E0809321
:10028000C200789480E580936C0080E88CBB8DBBC5
:10029000089580E88093610083E08093610010926C
:1002A000700088E08093B60088EC8093B3001092D1
:1002B0006E0081E0809381008093B0002091B600B1
:1002C0008091B60090E08470907030E021703070C2
:1002D000822B932B892B91F780E090E020E335E788
:1002E000F9013197F1F701968A309105C9F74FEF7F
:1002F00051E0F89446BB47BB1092850010928400F1
:100300001092B20087B38823E9F3109281007894A9
:1003100086B38823B9F49091840080918500382FAA
:1003200020E0B901690F711DCB0178E18B36970789
:1003300024F080916600815008C0885E974114F0D7
:1003400081E006C0809166008F5F8093660080E048
:1003500050938100882369F20895EF92FF920F93E2
:100360001F93DF93CF93CDB7DEB7C054D0400FB605
:10037000F894DEBF0FBECDBF0E94B10390E08E01A6
:100380000F5F1F4F7E010894E108F1088091C000C3
:1003900087FFFCCF8091C600F801E90FF11D808333
:1003A0009F5FA92FB0E0FE01EA0FFB1F80818A301A
:1003B00041F4AE0DBF1D1C92C8010E944F0319826B
:1003C00007C0913418F3198280E091E00E94FD008B
:1003D00090E0DCCF482F6AE00E94F303282F30E042
:1003E00084E0220F331F8A95E1F7842F0E94F303E4
:1003F000892F822B089580E090E020E335E7F90112
:100400003197F1F701968A309105C9F7F8948091F8
:1004100070008E7F8093700088E08093B600109209
:10042000B2008091B00085608093B0002091B6004A
:100430008091B60090E08470907030E02170307050
:10044000822B932B892B91F78FEF87BB80917000C4
:10045000816080937000789410922B0110922C018F
:1004600010922A0108951F920F920FB60F92112435
:100470008F9380912B018F5F80932B018C33A1F49C
:1004800010922B0180912C018F5F80932C018C3373
:1004900058F010922C0180912A018F5F80932A01DD
:1004A0008D3010F010922A018F910F900FBE0F9097
:1004B0001F901895EF92FF920F931F9340912A017E
:1004C000842F6AE00E94F303282F30E0E4E0220F3B
:1004D000331FEA95E1F7842F0E94F303F92EF22AE5
:1004E00040912C01842F0E94F303282F30E074E008
:1004F000220F331F7A95E1F7842F0E94F303092F0F
:10050000022B40912B01842F0E94F303282F30E00F
:1005100054E0220F331F5A95E1F7842F0E94F30312
:10052000192F122BE12EE2949FE0E92281E691E05F
:100530000E9415018F2D82958F70805D0E94E000D2
:100540008FE0F8228F2D805D0E94E0008AE30E94F8
:10055000E000802F82958F70805D0E94E0000F7018
:10056000802F805D0E94E0008AE30E94E0008E2DD3
:10057000805D0E94E0001F70812F805D0E94E0007E
:100580008DE00E94E0001F910F91FF90EF90089581
:10059000DF93CF9300D00F92CDB7DEB79C01DE0181
:1005A0001196E1E2F1E083E001900D928150E1F7D4
:1005B000F9018481898385818A83CE0101960E9415
:1005C000FF038D3091051CF480932A0108C082E35B
:1005D00091E00E9415018BE591E00E9415010F90BA
:1005E0000F900F90CF91DF910895DF93CF9300D0BC
:1005F0000F92CDB7DEB79C01DE011196E4E2F1E087
:1006000083E001900D928150E1F7F90183818983A4
:1006100084818A83CE0101960E94FF038D33910568
:100620001CF480932C0108C082E391E00E94150124
:1006300085E591E00E9415010F900F900F90CF91EA
:10064000DF910895DF93CF9300D00F92CDB7DEB73F
:100650009C01DE011196E7E2F1E083E001900D924A
:100660008150E1F7F9018381898384818A83CE01F6
:1006700001960E94FF038D3391051CF480932B019A
:1006800008C082E391E00E94150185E591E00E9497
:1006900015010F900F900F90CF91DF910895CF9398
:1006A000DF93EC018881883669F1893630F484362D
:1006B000B1F1873609F046C006C08D36C9F08337E0
:1006C00009F040C00BC08981853609F046C08A8197
:1006D000843709F042C00E945A023FC089818536A2
:1006E000E1F58A818336C9F5CE010E94220335C027
:1006F0008981893691F58A818E3679F5CE010E94FD
:10070000F5022BC089818F3641F58A81853729F51D
:100710008B81823711F5CE010E94C8021EC08981EB
:10072000853669F48A818D3651F48B818F3639F4A0
:100730008C818F3321F48CE590E00E94150185E7D0
:1007400090E009C08EE890E00E94150188810E9427
:10075000E0008BE990E00E9415011882DF91CF91B3
:100760000895EF92FF920F931F930E9449010E94F8
:100770002E010E94FB018CE590E00E94150185E7A7
:1007800090E00E941501F4EBEF2EF0E0FF2EC70180
:100790000E9415018BEB90E00E941501C7010E9499
:1007A00015018CED90E00E94150109E211E0C801ED
:1007B0000E941501C7010E94150186EF90E00E947A
:1007C0001501C8010E941501C7010E94150180E1B1
:1007D00091E00E941501C8010E9415011F910F911F
:1007E000FF90EF900895991B79E004C0991F961728
:1007F00008F0961B881F7A95C9F780950895FC012B
:1008000088279927E89421912032E9F3293010F0C4
:100810002E30C8F32B3241F02D3239F4689404C0E5
:100820000E941D04820F911D219120532A30C0F394
:100830001EF4909581959F4F08957AE0979F902D93
:0E084000879F802D910D11240895F894FFCF0D
:10084E004572726F72202D207265636569766564DC
:10085E00203E203634206368617261637465727362
:0A086E000000000000000000000080
:00000001FF
