:100000000C94DD000C94F8000C94F8000C94F800AB
:100010000C94F8000C94F8000C94F8000C94F80080
:100020000C94F8000C94F8000C94F8000C94F80070
:100030000C94F8000C94F8000C94F8000C94F80060
:100040000C94F8000C94F8000C94F8000C94F80050
:100050000C94F8000C94F8000C94BC030D0D596F2F
:1000600075206172652074616C6B696E6720746FB6
:1000700020746865200000274C4344272064656D88
:100080006F2E0D0D00000D596F752073656E743A5B
:100090002027000027202D204920646F6E27742020
:1000A000756E6465727374616E642E0D00004C434E
:1000B000442064656D6F000043616C6C6564204C86
:1000C00043445F707574735F6620000043616C6C1D
:1000D0006564204C43445F7075747320776974685D
:1000E00020000043616C6C6564204C43445F707574
:1000F00074630D00004C43445F436C6561722829B2
:100100000D000043616C6C6564204C43445F436F99
:100110006C6F6E0D000043616C6C656420536574F8
:10012000436F6E74726173740D000043616C6C6593
:1001300064204F6E5363726F6C6C0D00004C43442F
:100140005F7075745F6620746573740000510A8077
:100150002A0000000A510A000059551801111E1109
:100160001B500B411B411F1101511F511B0000006F
:100170000000000000000000000000510F91394114
:10018000149131411E410E411D500F802010154821
:10019000864014780570855115510E5195518E2168
:1001A0009081205015484450C528C028200950008F
:1001B0000000000000000000000011241FBECFEF6F
:1001C000D4E0DEBFCDBF11E0A0E0B1E0E8E9FAE0A5
:1001D00002C005900D92A432B107D9F711E0A4E254
:1001E000B1E001C01D92A735B107E1F70C94FA0008
:1001F0000C940000CFEBD4E0DEBFCDBFFF240E9403
:1002000014020E942E018130E1F76E010894C11C96
:10021000D11C86010F0D111DF3940E943801F801C5
:1002200080832F2D3327FE01E20FF31F80818A3058
:1002300059F4FE013197E20FF31F1082C6010E94AC
:1002400028021982F980DDCFF0E4FF15D0F6FF24F3
:10025000F98280E091E00E945C01D3CF8091C000E0
:10026000992787FD90958827990F881F99270895CA
:100270008091C6009927089520E030E08093C60061
:100280000FB607FE0FC08091C00086FD0FC02F5F24
:100290003F4F8091C00086FD09C087E220313807BA
:1002A000B4F304C08091C00086FFFCCF8091C000F1
:1002B00080648093C00008950F931F93CF93DF93C2
:1002C000EC018C01015C1F4F8991882329F00E9469
:1002D0003C010C171D07C4F7DF91CF911F910F91BF
:1002E0000895FF920F931F93CF93DF93FC01FF2498
:1002F0008491882389F0EF018F01F80184910E9495
:100300003C01F3940F5F1F4F2196FE0184918823D7
:1003100019F0FBE3FF1588F7DF91CF911F910F9143
:10032000FF90089580E88093610092E090936100CF
:100330001092C5008CE08093C4009093C00088E1C7
:100340008093C10086E08093C200789480E580931A
:100350006C0080E88CBB8DBB089540E080E8809302
:10036000610083E0809361004093700088E0809397
:10037000B60088EC8093B30040936E0081E08093D8
:1003800081008093B0008091B600282F3327217020
:1003900030708091B600992784709070282B392B8B
:1003A000232B89F729E030E080E395E70197F1F707
:1003B0002150304037FFF8CFF8948FEF86BB87BBD2
:1003C00010928500109284001092B20087B38823A7
:1003D000E9F310928100789486B3882319F02FEF07
:1003E0003FEF0AC09091840080918500282F332729
:1003F000322F2227290F311D88E12B36380724F0B0
:1004000080916600815006C0285E374134F48091A7
:1004100066008F5F8093660001C041E081E08093B9
:100420008100442349F208950E94AD010E94920187
:100430000E9467038CE590E00E94710187E790E0DD
:100440000E94710161E08EEA90E00E9471040895BB
:10045000CF93DF93EC01888199278035910509F4CA
:1004600044C08135910524F483349105E1F081C0C5
:100470008335910509F45EC08436910509F079C091
:100480008981853669F48A818D3651F48B818F3666
:1004900039F48C818F3321F48CE590E00E94710156
:1004A00087E790E06FC099819C3461F48A8185343C
:1004B00049F48B81813431F48C81823519F40E94A6
:1004C000F90262C09F3409F05FC08A818C3409F060
:1004D0005BC08B818F3409F057C08C818E3409F05A
:1004E00053C0CE010E9408034FC09981953551F445
:1004F0008A81843539F48B81833421F4CE010E94C2
:10050000E40242C0953551F48A81843539F48B81F7
:10051000863421F4CE010E94C70236C09535A1F57C
:100520008A81843589F58B81833571F5CE010E94EE
:10053000D1022AC09981933481F48A81823569F489
:100540008B818F3451F48C818C3439F48D818C34CF
:1005500021F4CE010E944A0317C09534A9F48A8180
:10056000843591F48B81833479F4CE010E941D038C
:100570000BC086E890E00E94710188810E943C01D6
:1005800084E990E00E947101DF91CF91089588EB9A
:1005900090E00E94710161E08DE391E00E9471049E
:1005A00008950F931F938C018CEC90E00E947101D1
:1005B000C8010E945C010C5F1F4F60E0C8010E94EF
:1005C000A4041F910F910895CF93DF93EC0183EE64
:1005D00090E00E9471018C818053873038F46D81E6
:1005E0000E94D00460E081E00E94E404DF91CF919A
:1005F000089585EF90E00E947101109228011092F9
:1006000056010E94D90460E081E00E94E40408954C
:100610000F931F938C0183E091E00E947101F80118
:100620008581813311F481E003C0803319F480E0C7
:100630000E94E1041F910F9108950F931F93CF9390
:10064000DF93CDB7DEB723970FB6F894DEBF0FBEAA
:10065000CDBF8C0183E0FE01319611928A95E9F7B6
:1006600086E191E00E947101F8018481898385818E
:100670008A83CE0101960E9417050E94F2042396F8
:100680000FB6F894DEBF0FBECDBFDF91CF911F91A3
:100690000F9108950F931F938C018BE291E00E94BC
:1006A0007101F8018681813349F481E0809328014A
:1006B0001092560183E08093250106C0803321F417
:1006C00010922801109256011F910F91089580E019
:1006D0000E94B2038FE08093E70087EB8093E500F0
:1006E00087E08093E60080EC8093E4008091E40052
:1006F00088608093E400109224010895E82F20E0A0
:1007000030E0663070F58A52813558F4E13608F0F1
:10071000EF7DEA52FF27EE0FFF1FE35BFE4F2591AF
:100720003491A62FBB27A0FF02C05FE001C050EFAD
:100730006695E62FFF27E75DFE4F40E0922F9F7002
:1007400084E0369527958A95E1F7A0FF02C092953F
:10075000907F80818523892B808335964F5F44303D
:1007600068F3089581118FEF90E0E9E2F1E0819361
:100770009F5F9431E0F308951F920F920FB60F928E
:100780001124DF92EF92FF920F931F932F933F93C9
:100790004F935F936F937F938F939F93AF93BF9389
:1007A000CF93EF93FF93EE2490912101915090937A
:1007B000210180912801882371F0992371F480919F
:1007C0002501882321F481E08093240106C0815013
:1007D0008093250102C0E0925601FF2490912401EC
:1007E000913009F056C080912601853010F4DF2C3D
:1007F00001C0D92EC0E000E010E080915601992799
:1008000087FD9095800F911F97FD17C0FF20A9F4D9
:1008100080915601E82FFF27E7FDF095E35CFE4F3E
:10082000E00FF11F8081EF2C87FF02C091E0E92EDD
:100830008F7721F4FC2EF39401C080E2EE2029F0A2
:10084000DD2019F06C2F80E201C06C2F0E947E0326
:10085000CF5F0F5F1F4FC63080F2C0E0ACEEB0E05C
:10086000E9E2F1E081918D93CF5FC431D8F38091BB
:100870002701811181E08093F40081E0F81611F4E2
:100880008AEF03C0809156018F5F809356011092CA
:10089000240180912101882319F483E080932101B0
:1008A000809126018A3019F41092260103C08F5FCF
:1008B00080932601FF91EF91CF91BF91AF919F91CE
:1008C0008F917F916F915F914F913F912F911F91E8
:1008D0000F91FF90EF90DF900F900FBE0F901F9041
:1008E0001895FC01809124018823E1F7982F8491C9
:1008F000882391F0AF01ADE3B1E09F01F90184914C
:100900008D939F5F2F5F3F4F4F5F5F4FFA01849141
:10091000882311F0993190F3E92FFF27E35CFE4F14
:100920001082973048F081E08093280110925601A0
:1009300083E08093250104C0109228011092560193
:1009400081E0809324010895DC01E0912401EE23ED
:10095000E1F79E2F8C91882359F0FD01ADE3B1E0C2
:1009600081918D939F5F8081882311F09931C0F32D
:10097000E92FFF27E35CFE4F1082973048F081E0BB
:10098000809328011092560183E08093250104C0D2
:10099000109228011092560181E08093240108955D
:1009A000893128F4E82FFF27E35CFE4F6083089528
:1009B000089580E0EDE3F1E011928F5F8931E0F37B
:1009C0000895809327010895909124019923E1F7D8
:1009D000609328019093560180932401089510920A
:1009E000260108951F93182F0E94D90461E480E026
:1009F0000E94D00462E481E00E94D00463E482E0BB
:100A00000E94D00464E483E00E94D00465E484E0A2
:100A10000E94D00466E485E00E94D00460E081E09A
:100A20000E94E4041F701093E7001F910895FC01D9
:100A300088279927E89421912223F1F02032D9F3D5
:100A40002930C9F32A30B9F32C30A9F32D3099F3AA
:100A5000263789F32B3219F02D3221F46894219135
:100A6000222351F0203344F02A3334F420530E94DF
:100A70004405820F911DF3CF8115910521F01EF4DD
:100A800080959095019608957AE0979F902D879F85
:080A9000802D910D1124089541
:100A98004572726F72202D20726563656976656490
:100AA800203E203634206368617261637465727316
:040AB80000030F0028
:00000001FF
