:100000000C9468000C9485000C9485000C94850079
:100010000C9485000C9485000C9485000C9485004C
:100020000C9485000C9485000C9485000C9485003C
:100030000C9485000C9485000C9485000C9485002C
:100040000C9485000C9485000C9485000C9485001C
:100050000C9485000C9485000C94A30148484D4DE8
:10006000535300510A802A0000000A510A00005927
:10007000551801111E111B500B411B411F1101513D
:100080001F511B00000000000000000000000000E5
:1000900000510F913941149131411E410E411D50C3
:1000A0000F80201015488640147805708551155131
:1000B0000E5195518E219081205015484450C528ED
:1000C000C0282009500000000000000000000000CF
:1000D00011241FBECFEFD4E0DEBFCDBF11E0A0E002
:1000E000B1E0EEEBF4E002C005900D92A230B10752
:1000F000D9F711E0A2E0B1E001C01D92A533B1072C
:10010000E1F70E9487000C945D020C9400000E94AD
:100110008D0178948CE590E061E00E94C70081E059
:100120000E943701FFCF482F6AE00E945102282F1A
:1001300030E084E0220F331F8A95E1F7842F0E947C
:100140005102892F822B0895282F64E60E945102C4
:10015000492F822F0E945102282F30E054E0220FB5
:10016000331F5A95E1F7842F6AE00E945102280F4D
:10017000311D94E0220F331F9A95E1F7842F0E94DE
:100180005102892F90E0282B392BC9010895382F6F
:10019000292F809102018823E1F7ABE1B1E0832FA1
:1001A000922FFC0101C08D939E2F931B8491882375
:1001B00029F0319621E0A433B207A9F7E92FF0E046
:1001C000E55EFE4F1082973048F081E08093060193
:1001D0001092340183E08093030104C01092060161
:1001E0001092340181E0809302010895482F292F55
:1001F000809102018823E1F7ABE1B1E0842F922FD7
:100200009C01F90101C08D939E2F941B808188234E
:1002100029F0319621E0A433B207A9F7E92FF0E0E5
:10022000E55EFE4F1082973048F081E08093060132
:100230001092340183E08093030104C01092060100
:100240001092340181E0809302010895893128F4ED
:10025000E82FF0E0E55EFE4F60830895EBE1F1E00A
:1002600080E2819391E0E433F907D9F70895809310
:1002700005010895982F809102018823E1F760938A
:100280000601109234019093020108951092040126
:100290000895982F6630B0F58A52813518F040E005
:1002A00050E00CC0913608F09F7D9A52E92FF0E0A3
:1002B000EE0FFF1FED59FF4F45915491862F90E0AF
:1002C000DC01A170B07060FD02C090EF01C09FE042
:1002D0006695E62FF0E0E95FFE4F30E0242F2F70A7
:1002E00084E0569547958A95E1F7109711F022958D
:1002F000207F80818923282B20833F5F343011F0B9
:100300003596ECCF089581118FEFE7E0F1E081930E
:1003100091E0EB31F907D9F7089580E00E9483015D
:100320008FE08093E70087EB8093E50087E0809380
:10033000E600E4EEF0E080EC8083808188608083DA
:100340001092020108951F920F920FB60F9211247E
:10035000EF92FF920F931F932F933F934F935F93CF
:100360006F937F938F939F93AF93BF93CF93DF93BD
:10037000EF93FF93009101010150009301018091DF
:100380000601882371F0002371F480910301882312
:1003900021F481E08093020106C081508093030123
:1003A00002C01092340180910201813009F053C0E3
:1003B000E0900401FF2410E0C0E0D0E06C2F8091B9
:1003C0003401992787FD90958C0F9D1F97FD16C0CE
:1003D0001123A1F480913401992787FD9095FE01A6
:1003E000E55EFE4FE80FF91F8081F82EFF1CFF2409
:1003F000FF1C8F7721F41C2F1F5F01C080E2FF20BC
:1004000021F094E09E1508F480E20E9449012196B3
:10041000C630D10599F6ACEEB0E0FD01E55EFF4FC8
:1004200080818D9381E0A030B807B9F780910501F4
:10043000882321F081E08093F40002C01092F40040
:10044000113011F48AEF03C0809134018F5F8093E3
:10045000340110920201002319F483E0809301011A
:10046000809104018A3019F41092040103C08F5F57
:1004700080930401FF91EF91DF91CF91BF91AF91F4
:100480009F918F917F916F915F914F913F912F91AC
:100490001F910F91FF90EF900F900FBE0F901F9044
:1004A0001895991B79E004C0991F961708F0961BC0
:0E04B000881F7A95C9F780950895F894FFCFBC
:0204BE000F032A
:00000001FF
