:100000000C9464000C9481000C9479010C945501BB
:100010000C9481000C9481000C9481000C9481005C
:100020000C9481000C9481000C9497000C94810036
:100030000C9481000C9481000C9481000C9481003C
:100040000C9481000C9481000C9481000C9481002C
:100050000C9481000C9481000C94B102510A802A06
:100060000000000A510A000059551801111E111B09
:10007000500B411B411F1101511F511B000000007B
:1000800000000000000000000000510F91394114F1
:100090009131411E410E411D500F802010154886A0
:1000A0004014780570855115510E5195518E21904F
:1000B00081205015484450C528C028200950000010
:1000C000000000000000000011241FBECFEFD4E0AC
:1000D000DEBFCDBF11E0A0E0B1E0EEEDF7E002C081
:1000E00005900D92A230B107D9F711E0A2E0B1E07E
:1000F00001C01D92AE33B107E1F70E9401020C94DA
:10010000ED030C940000E1E6F0E080E8808383E0FA
:10011000808382E080936E0086E287BD8CE084BDA0
:1001200010920A0110920D0110920E0108951F9273
:100130000F920FB60F9211248F93809104018823A0
:1001400029F080910A018F5F80930A0180910A0152
:100150008336C1F410920A0180910D018F5F809364
:100160000D0180910D018C3368F010920D0180918A
:100170000E018F5F80930E0180910E018C3310F081
:1001800010920E018F910F900FBE0F901F90189537
:1001900080E88093610083E080936100109270009A
:1001A00088E08093B60088EC8093B30010926E00D4
:1001B00081E0809381008093B0002091B60080910F
:1001C000B60090E08470907030E021703070822B27
:1001D000932B892B91F780E090E020E335E7F9013C
:1001E0003197F1F701968A309105C9F74FEF51E049
:1001F000F89446BB47BB1092850010928400109281
:10020000B20087B38823E9F310928100789486B313
:100210008823B9F49091840080918500382F20E0E4
:10022000B901690F711DCB0178E18B36970724F076
:1002300080916600815008C0885E974114F081E08B
:1002400006C0809166008F5F8093660080E05093C7
:100250008100882369F2089583B19CB190959C70C8
:100260008095807D982B97FF04C01092040192E046
:1002700010C093FF08C010920A0110920D01109255
:100280000E0193E006C094FF0DC081E0809304014D
:1002900091E080910301882329F49093020181E089
:1002A0008093030180EC8CBB08951F920F920FB6D0
:1002B0000F9211242F933F934F935F936F937F93EC
:1002C0008F939F93AF93BF93EF93FF930E942C0163
:1002D000FF91EF91BF91AF919F918F917F916F911E
:1002E0005F914F913F912F910F900FBE0F901F90F4
:1002F00018951F920F920FB60F9211242F933F93D0
:100300004F935F936F937F938F939F93AF93BF931D
:10031000EF93FF930E942C01FF91EF91BF91AF915A
:100320009F918F917F916F915F914F913F912F910D
:100330000F900FBE0F901F901895F89480910301B5
:10034000882321F08091020110920301789408958E
:10035000CF92DF92EF92FF920F931F9380910E0145
:100360000E942302182F082F02950F7080910D0113
:100370000E942302F82ED82ED2949FE0D922809199
:100380000A010E942302E82EC82EC2948FE0C822E0
:10039000005D80E0602F0E94BE031F70105D81E051
:1003A000612F0E94BE0380E3D80E82E06D2D0E9473
:1003B000BE038FE0F82280E3F80E83E06F2D0E94E9
:1003C000BE0380E3C80E84E06C2D0E94BE038FE064
:1003D000E82280E3E80E85E06E2D0E94BE0386E0F1
:1003E00060E00E94BE0381E00E94CF0381E060E0F4
:1003F0000E94D2031F910F91FF90EF90DF90CF905A
:1004000008950E94C80084B1886D84B985B1806D5B
:1004100085B91DB88EB18C608EB98CE080936B006D
:1004200080ED80936C0080EC8CBB8DBB8FEF8AB924
:1004300014B885B98BB978940E9483000E949B02FE
:100440000E94A801FDCF482F6AE00E94E103282FF7
:1004500030E084E0220F331F8A95E1F7842F0E9459
:10046000E103892F822B0895282F64E60E94E1037F
:10047000492F822F0E94E103282F30E054E0220F01
:10048000331F5A95E1F7842F6AE00E94E103280F99
:10049000311D94E0220F331F9A95E1F7842F0E94BB
:1004A000E103892F90E0282B392BC9010895982F5B
:1004B0006630B0F58A52813518F040E050E00CC04B
:1004C000913608F09F7D9A52E92FF0E0EE0FFF1F62
:1004D000E45AFF4F45915491862F90E0DC01A170C2
:1004E000B07060FD02C090EF01C09FE06695E62FFE
:1004F000F0E0E05FFE4F30E0242F2F7084E056954F
:1005000047958A95E1F7109711F02295207F808119
:100510008923282B20833F5F343011F03596ECCFB0
:10052000089581118FEFE0E1F1E0819391E0E432F1
:10053000F907D9F7089580E00E9491028FE0809337
:10054000E70087EB8093E50087E08093E600E4EE28
:10055000F0E080EC808380818860808310920501C8
:1005600008951F920F920FB60F921124EF92FF92EF
:100570000F931F932F933F934F935F936F937F93AB
:100580008F939F93AF93BF93CF93DF93EF93FF939B
:100590000091000101500093000180910F01882318
:1005A00071F0002371F480910601882321F481E029
:1005B0008093050106C081508093060102C010920D
:1005C0003D0180910501813009F053C0E0900701A1
:1005D000FF2410E0C0E0D0E06C2F80913D0199270E
:1005E00087FD90958C0F9D1F97FD16C01123A1F4D8
:1005F00080913D01992787FD9095FE01EC5DFE4FAE
:10060000E80FF91F8081F82EFF1CFF24FF1C8F7755
:1006100021F41C2F1F5F01C080E2FF2021F094E035
:100620009E1508F480E20E9457022196C630D1053B
:1006300099F6ACEEB0E0FD01EC5DFF4F80818D934B
:1006400081E0A030B807B9F780910801882321F034
:1006500081E08093F40002C01092F400113011F494
:100660008AEF03C080913D018F5F80933D0110921E
:100670000501002319F483E08093000180910701B4
:100680008A3019F41092070103C08F5F809307012D
:10069000FF91EF91DF91CF91BF91AF919F918F919A
:1006A0007F916F915F914F913F912F911F910F918A
:1006B000FF90EF900F900FBE0F901F901895382F5E
:1006C000292F809105018823E1F7A4E2B1E0832F6F
:1006D000922FFC0101C08D939E2F931B8491882340
:1006E00029F0319621E0AD33B207A9F7E92FF0E008
:1006F000EC5DFE4F1082973048F081E080930F014F
:1007000010923D0183E08093060104C010920F0116
:1007100010923D0181E0809305010895482F292F13
:10072000809105018823E1F7A4E2B1E0842F922FA4
:100730009C01F90101C08D939E2F941B8081882319
:1007400029F0319621E0AD33B207A9F7E92FF0E0A7
:10075000EC5DFE4F1082973048F081E080930F01EE
:1007600010923D0183E08093060104C010920F01B6
:1007700010923D0181E0809305010895893128F4AC
:10078000E82FF0E0EC5DFE4F60830895E4E2F1E0D5
:1007900080E2819391E0ED33F907D9F708958093D2
:1007A00008010895982F809105018823E1F760934F
:1007B0000F0110923D0190930501089510920701D9
:1007C0000895991B79E004C0991F961708F0961BAD
:0E07D000881F7A95C9F780950895F894FFCF99
:0207DE00030F07
:00000001FF
