:100000000C9464000C9481000C9481000C94810089
:100010000C9481000C9481000C9481000C9481005C
:100020000C9481000C9481000C9497000C94810036
:100030000C9481000C9481000C9481000C9481003C
:100040000C9481000C9481000C9481000C9481002C
:100050000C9481000C9481000C94B301510A802A05
:100060000000000A510A000059551801111E111B09
:10007000500B411B411F1101511F511B000000007B
:1000800000000000000000000000510F91394114F1
:100090009131411E410E411D500F802010154886A0
:1000A0004014780570855115510E5195518E21904F
:1000B00081205015484450C528C028200950000010
:1000C000000000000000000011241FBECFEFD4E0AC
:1000D000DEBFCDBF11E0A0E0B1E0E2EEF5E002C08E
:1000E00005900D92A230B107D9F711E0A2E0B1E07E
:1000F00001C01D92AA33B107E1F70E941D010C94C3
:10010000EF020C940000E1E6F0E080E8808383E0F9
:10011000808382E080936E0086E287BD8CE084BDA0
:10012000109206011092090110920A0108951F927F
:100130000F920FB60F9211248F93809106018F5F5B
:1001400080930601809106018336C1F41092060166
:10015000809109018F5F80930901809109018C339F
:1001600068F01092090180910A018F5F80930A0163
:1001700080910A018C3310F010920A018F910F9038
:100180000FBE0F901F901895CF92DF92EF92FF92C3
:100190000F931F9380910A010E942501182F082FA9
:1001A00002950F70809109010E942501F82ED82E2A
:1001B000D2949FE0D922809106010E942501E82E69
:1001C000C82EC2948FE0C822005D80E0602F0E949C
:1001D000C0021F70105D81E0612F0E94C00280E3A9
:1001E000D80E82E06D2D0E94C0028FE0F82280E3DD
:1001F000F80E83E06F2D0E94C00280E3C80E84E0F9
:100200006C2D0E94C0028FE0E82280E3E80E85E0BA
:100210006E2D0E94C00286E060E00E94C00281E074
:100220000E94D10281E060E00E94D4021F910F91F0
:10023000FF90EF90DF90CF90089578940E94830014
:100240000E949D010E94C400FDCF482F6AE00E94D9
:10025000E302282F30E084E0220F331F8A95E1F774
:10026000842F0E94E302892F822B0895282F64E6B1
:100270000E94E302492F822F0E94E302282F30E0E0
:1002800054E0220F331F5A95E1F7842F6AE00E9451
:10029000E302280F311D94E0220F331F9A95E1F7F6
:1002A000842F0E94E302892F90E0282B392BC9016B
:1002B0000895982F6630B0F58A52813518F040E0E5
:1002C00050E00CC0913608F09F7D9A52E92FF0E083
:1002D000EE0FFF1FE45AFF4F45915491862F90E097
:1002E000DC01A170B07060FD02C090EF01C09FE022
:1002F0006695E62FF0E0E45FFE4F30E0242F2F708C
:1003000084E0569547958A95E1F7109711F022956C
:10031000207F80818923282B20833F5F343011F098
:100320003596ECCF089581118FEFECE0F1E08193E9
:1003300091E0E032F907D9F7089580E00E94930137
:100340008FE08093E70087EB8093E50087E0809360
:10035000E600E4EEF0E080EC8083808188608083BA
:100360001092020108951F920F920FB60F9211245E
:10037000EF92FF920F931F932F933F934F935F93AF
:100380006F937F938F939F93AF93BF93CF93DF939D
:10039000EF93FF93009100010150009300018091C1
:1003A0000B01882371F0002371F4809103018823ED
:1003B00021F481E08093020106C081508093030103
:1003C00002C01092390180910201813009F053C0BE
:1003D000E0900401FF2410E0C0E0D0E06C2F809199
:1003E0003901992787FD90958C0F9D1F97FD16C0A9
:1003F0001123A1F480913901992787FD9095FE0181
:10040000E05EFE4FE80FF91F8081F82EFF1CFF24ED
:10041000FF1C8F7721F41C2F1F5F01C080E2FF209B
:1004200021F094E09E1508F480E20E945901219683
:10043000C630D10599F6ACEEB0E0FD01E05EFF4FAD
:1004400080818D9381E0A030B807B9F780910501D4
:10045000882321F081E08093F40002C01092F40020
:10046000113011F48AEF03C0809139018F5F8093BE
:10047000390110920201002319F483E080930001F6
:10048000809104018A3019F41092040103C08F5F37
:1004900080930401FF91EF91DF91CF91BF91AF91D4
:1004A0009F918F917F916F915F914F913F912F918C
:1004B0001F910F91FF90EF900F900FBE0F901F9024
:1004C0001895382F292F809102018823E1F7A0E2A7
:1004D000B1E0832F922FFC0101C08D939E2F931BBF
:1004E0008491882329F0319621E0A933B207A9F736
:1004F000E92FF0E0E05EFE4F1082973048F081E097
:1005000080930B011092390183E08093030104C0B2
:1005100010920B011092390181E08093020108953D
:10052000482F292F809102018823E1F7A0E2B1E052
:10053000842F922F9C01F90101C08D939E2F941B53
:100540008081882329F0319621E0A933B207A9F7E9
:10055000E92FF0E0E05EFE4F1082973048F081E036
:1005600080930B011092390183E08093030104C052
:1005700010920B011092390181E0809302010895DD
:10058000893128F4E82FF0E0E05EFE4F60830895A3
:10059000E0E2F1E080E2819391E0E933F907D9F7F5
:1005A0000895809305010895982F80910201882372
:1005B000E1F760930B0110923901909302010895C5
:1005C000109204010895991B79E004C0991F9617B1
:1005D00008F0961B881F7A95C9F780950895F894BE
:0205E000FFCF4B
:0205E200030F05
:00000001FF
